{
  "_format": "hh-sol-artifact-1",
  "contractName": "WavePortal",
  "sourceName": "contracts/WavePortal.sol",
  "abi": [
    {
      "inputs": [],
      "stateMutability": "payable",
      "type": "constructor"
    },
    {
      "anonymous": false,
      "inputs": [
        {
          "indexed": true,
          "internalType": "address",
          "name": "from",
          "type": "address"
        },
        {
          "indexed": false,
          "internalType": "uint256",
          "name": "timestamp",
          "type": "uint256"
        },
        {
          "indexed": false,
          "internalType": "string",
          "name": "message",
          "type": "string"
        }
      ],
      "name": "newJoke",
      "type": "event"
    },
    {
      "inputs": [],
      "name": "getAllJokes",
      "outputs": [
        {
          "components": [
            {
              "internalType": "address",
              "name": "joker",
              "type": "address"
            },
            {
              "internalType": "string",
              "name": "message",
              "type": "string"
            },
            {
              "internalType": "uint256",
              "name": "timestamp",
              "type": "uint256"
            }
          ],
          "internalType": "struct WavePortal.Joke[]",
          "name": "",
          "type": "tuple[]"
        }
      ],
      "stateMutability": "view",
      "type": "function"
    },
    {
      "inputs": [],
      "name": "getTotalJokes",
      "outputs": [
        {
          "internalType": "uint256",
          "name": "",
          "type": "uint256"
        }
      ],
      "stateMutability": "view",
      "type": "function"
    },
    {
      "inputs": [
        {
          "internalType": "string",
          "name": "_message",
          "type": "string"
        }
      ],
      "name": "joke",
      "outputs": [],
      "stateMutability": "nonpayable",
      "type": "function"
    },
    {
      "inputs": [
        {
          "internalType": "address",
          "name": "",
          "type": "address"
        }
      ],
      "name": "lastWavedAt",
      "outputs": [
        {
          "internalType": "uint256",
          "name": "",
          "type": "uint256"
        }
      ],
      "stateMutability": "view",
      "type": "function"
    }
  ],
  "bytecode": "0x6080604052620000336040518060600160405280602581526020016200150760259139620000a960201b620005c41760201c565b60644244620000439190620002e1565b6200004f91906200037e565b600181905550620000a36040518060400160405280600d81526020017f72616e646f6d20736565643a20000000000000000000000000000000000000008152506001546200014c60201b6200065d1760201c565b62000425565b6200014981604051602401620000c091906200026d565b6040516020818303038152906040527f41304fac000000000000000000000000000000000000000000000000000000007bffffffffffffffffffffffffffffffffffffffffffffffffffffffff19166020820180517bffffffffffffffffffffffffffffffffffffffffffffffffffffffff8381831617835250505050620001f260201b60201c565b50565b620001ee82826040516024016200016592919062000291565b6040516020818303038152906040527f9710a9d0000000000000000000000000000000000000000000000000000000007bffffffffffffffffffffffffffffffffffffffffffffffffffffffff19166020820180517bffffffffffffffffffffffffffffffffffffffffffffffffffffffff8381831617835250505050620001f260201b60201c565b5050565b60008151905060006a636f6e736f6c652e6c6f679050602083016000808483855afa5050505050565b60006200022882620002c5565b620002348185620002d0565b93506200024681856020860162000348565b620002518162000414565b840191505092915050565b62000267816200033e565b82525050565b600060208201905081810360008301526200028981846200021b565b905092915050565b60006040820190508181036000830152620002ad81856200021b565b9050620002be60208301846200025c565b9392505050565b600081519050919050565b600082825260208201905092915050565b6000620002ee826200033e565b9150620002fb836200033e565b9250827fffffffffffffffffffffffffffffffffffffffffffffffffffffffffffffffff03821115620003335762000332620003b6565b5b828201905092915050565b6000819050919050565b60005b83811015620003685780820151818401526020810190506200034b565b8381111562000378576000848401525b50505050565b60006200038b826200033e565b915062000398836200033e565b925082620003ab57620003aa620003e5565b5b828206905092915050565b7f4e487b7100000000000000000000000000000000000000000000000000000000600052601160045260246000fd5b7f4e487b7100000000000000000000000000000000000000000000000000000000600052601260045260246000fd5b6000601f19601f8301169050919050565b6110d280620004356000396000f3fe608060405234801561001057600080fd5b506004361061004c5760003560e01c8063696ff25c1461005157806370eea42f1461006f5780639e599c041461008b578063a42a4663146100a9575b600080fd5b6100596100d9565b6040516100669190610b70565b60405180910390f35b61008960048036038101906100849190610907565b61022a565b005b610093610561565b6040516100a09190610c74565b60405180910390f35b6100c360048036038101906100be91906108de565b6105ac565b6040516100d09190610c74565b60405180910390f35b60606003805480602002602001604051908101604052809291908181526020016000905b8282101561022157838290600052602060002090600302016040518060600160405290816000820160009054906101000a900473ffffffffffffffffffffffffffffffffffffffff1673ffffffffffffffffffffffffffffffffffffffff1673ffffffffffffffffffffffffffffffffffffffff16815260200160018201805461018690610e5a565b80601f01602080910402602001604051908101604052809291908181526020018280546101b290610e5a565b80156101ff5780601f106101d4576101008083540402835291602001916101ff565b820191906000526020600020905b8154815290600101906020018083116101e257829003601f168201915b50505050508152602001600282015481525050815260200190600101906100fd565b50505050905090565b42610384600260003373ffffffffffffffffffffffffffffffffffffffff1673ffffffffffffffffffffffffffffffffffffffff168152602001908152602001600020546102789190610d86565b106102b8576040517f08c379a00000000000000000000000000000000000000000000000000000000081526004016102af90610c14565b60405180910390fd5b60016000808282546102ca9190610d86565b925050819055506103106040518060400160405280601581526020017f25732068617320637261636b65642061206a6f6b650000000000000000000000815250336106f9565b606460015442446103219190610d86565b61032b9190610d86565b6103359190610ebd565b600181905550600360405180606001604052803373ffffffffffffffffffffffffffffffffffffffff16815260200183815260200142815250908060018154018082558091505060019003906000526020600020906003020160009091909190915060008201518160000160006101000a81548173ffffffffffffffffffffffffffffffffffffffff021916908373ffffffffffffffffffffffffffffffffffffffff16021790555060208201518160010190805190602001906103fa9291906107be565b50604082015181600201555050600a600154101561050e57600064e8d4a5100090504781111561045f576040517f08c379a000000000000000000000000000000000000000000000000000000000815260040161045690610c34565b60405180910390fd5b60003373ffffffffffffffffffffffffffffffffffffffff168260405161048590610b5b565b60006040518083038185875af1925050503d80600081146104c2576040519150601f19603f3d011682016040523d82523d6000602084013e6104c7565b606091505b505090508061050b576040517f08c379a000000000000000000000000000000000000000000000000000000000815260040161050290610c54565b60405180910390fd5b50505b3373ffffffffffffffffffffffffffffffffffffffff167fede3939ebedfef6eb261844c1016858a1555fb4442f72b1e2568b9e93e910ffa4283604051610556929190610c8f565b60405180910390a250565b60006105a46040518060400160405280601681526020017f5765206861766520256420746f74616c206a6f6b65730000000000000000000081525060005461065d565b600054905090565b60026020528060005260406000206000915090505481565b61065a816040516024016105d89190610b92565b6040516020818303038152906040527f41304fac000000000000000000000000000000000000000000000000000000007bffffffffffffffffffffffffffffffffffffffffffffffffffffffff19166020820180517bffffffffffffffffffffffffffffffffffffffffffffffffffffffff8381831617835250505050610795565b50565b6106f58282604051602401610673929190610be4565b6040516020818303038152906040527f9710a9d0000000000000000000000000000000000000000000000000000000007bffffffffffffffffffffffffffffffffffffffffffffffffffffffff19166020820180517bffffffffffffffffffffffffffffffffffffffffffffffffffffffff8381831617835250505050610795565b5050565b610791828260405160240161070f929190610bb4565b6040516020818303038152906040527f319af333000000000000000000000000000000000000000000000000000000007bffffffffffffffffffffffffffffffffffffffffffffffffffffffff19166020820180517bffffffffffffffffffffffffffffffffffffffffffffffffffffffff8381831617835250505050610795565b5050565b60008151905060006a636f6e736f6c652e6c6f679050602083016000808483855afa5050505050565b8280546107ca90610e5a565b90600052602060002090601f0160209004810192826107ec5760008555610833565b82601f1061080557805160ff1916838001178555610833565b82800160010185558215610833579182015b82811115610832578251825591602001919060010190610817565b5b5090506108409190610844565b5090565b5b8082111561085d576000816000905550600101610845565b5090565b600061087461086f84610ce4565b610cbf565b90508281526020810184848401111561088c57600080fd5b610897848285610e18565b509392505050565b6000813590506108ae81611085565b92915050565b600082601f8301126108c557600080fd5b81356108d5848260208601610861565b91505092915050565b6000602082840312156108f057600080fd5b60006108fe8482850161089f565b91505092915050565b60006020828403121561091957600080fd5b600082013567ffffffffffffffff81111561093357600080fd5b61093f848285016108b4565b91505092915050565b60006109548383610aed565b905092915050565b61096581610ddc565b82525050565b61097481610ddc565b82525050565b600061098582610d25565b61098f8185610d48565b9350836020820285016109a185610d15565b8060005b858110156109dd57848403895281516109be8582610948565b94506109c983610d3b565b925060208a019950506001810190506109a5565b50829750879550505050505092915050565b60006109fa82610d30565b610a048185610d64565b9350610a14818560208601610e27565b610a1d81610faa565b840191505092915050565b6000610a3382610d30565b610a3d8185610d75565b9350610a4d818560208601610e27565b610a5681610faa565b840191505092915050565b6000610a6e600083610d59565b9150610a7982610fbb565b600082019050919050565b6000610a91600f83610d75565b9150610a9c82610fbe565b602082019050919050565b6000610ab4602e83610d75565b9150610abf82610fe7565b604082019050919050565b6000610ad7602683610d75565b9150610ae282611036565b604082019050919050565b6000606083016000830151610b05600086018261095c565b5060208301518482036020860152610b1d82826109ef565b9150506040830151610b326040860182610b3d565b508091505092915050565b610b4681610e0e565b82525050565b610b5581610e0e565b82525050565b6000610b6682610a61565b9150819050919050565b60006020820190508181036000830152610b8a818461097a565b905092915050565b60006020820190508181036000830152610bac8184610a28565b905092915050565b60006040820190508181036000830152610bce8185610a28565b9050610bdd602083018461096b565b9392505050565b60006040820190508181036000830152610bfe8185610a28565b9050610c0d6020830184610b4c565b9392505050565b60006020820190508181036000830152610c2d81610a84565b9050919050565b60006020820190508181036000830152610c4d81610aa7565b9050919050565b60006020820190508181036000830152610c6d81610aca565b9050919050565b6000602082019050610c896000830184610b4c565b92915050565b6000604082019050610ca46000830185610b4c565b8181036020830152610cb68184610a28565b90509392505050565b6000610cc9610cda565b9050610cd58282610e8c565b919050565b6000604051905090565b600067ffffffffffffffff821115610cff57610cfe610f7b565b5b610d0882610faa565b9050602081019050919050565b6000819050602082019050919050565b600081519050919050565b600081519050919050565b6000602082019050919050565b600082825260208201905092915050565b600081905092915050565b600082825260208201905092915050565b600082825260208201905092915050565b6000610d9182610e0e565b9150610d9c83610e0e565b9250827fffffffffffffffffffffffffffffffffffffffffffffffffffffffffffffffff03821115610dd157610dd0610eee565b5b828201905092915050565b6000610de782610dee565b9050919050565b600073ffffffffffffffffffffffffffffffffffffffff82169050919050565b6000819050919050565b82818337600083830152505050565b60005b83811015610e45578082015181840152602081019050610e2a565b83811115610e54576000848401525b50505050565b60006002820490506001821680610e7257607f821691505b60208210811415610e8657610e85610f4c565b5b50919050565b610e9582610faa565b810181811067ffffffffffffffff82111715610eb457610eb3610f7b565b5b80604052505050565b6000610ec882610e0e565b9150610ed383610e0e565b925082610ee357610ee2610f1d565b5b828206905092915050565b7f4e487b7100000000000000000000000000000000000000000000000000000000600052601160045260246000fd5b7f4e487b7100000000000000000000000000000000000000000000000000000000600052601260045260246000fd5b7f4e487b7100000000000000000000000000000000000000000000000000000000600052602260045260246000fd5b7f4e487b7100000000000000000000000000000000000000000000000000000000600052604160045260246000fd5b6000601f19601f8301169050919050565b50565b7f57616974203135206d696e757465730000000000000000000000000000000000600082015250565b7f547279696e6720746f2077697468647261772074686520657468657220666f7260008201527f6d2074686520636f6e7472616374000000000000000000000000000000000000602082015250565b7f4661696c656420746f207769746864726177206d6f656e792066726f6d20636f60008201527f6e74726163740000000000000000000000000000000000000000000000000000602082015250565b61108e81610ddc565b811461109957600080fd5b5056fea264697066735822122005075dbd97f661aa1b1f04aa04ec108e975a088c43aeb8c98855382c1dba8f1f64736f6c634300080400334865792074686973206973206d7920666972737420736d61727420636f6e74726163742121",
  "linkReferences": {},
  "deployedLinkReferences": {}
}